:100000000A128A11EE2F00308A000408840A82073F
:1000100000343134323433344134343435343634CA
:10002000423437343834393443342A343034233486
:02003000443456
:100C60005434653463346C3461342034203420349B
:100C70000034F5007508F40006300310F40DFF3E53
:100C8000031D3D2E730874077F39803E0A128A11B6
:100C90007D270800F03083160313860083160317A0
:100CA0008901831603138113FF309500FF308312EF
:100CB0000313860008007E088A007F0882005B26F6
:100CC0000A128A118000840A04087D060319003480
:100CD000FF0A0319FE0A5F2E8316031308118811F9
:100CE00008128812081388138312031388152830FA
:100CF0000A128A117D270A128A110C300A128A11EF
:100D00007D270A128A1101300A128A117D270A12E0
:100D10008A1102300A128A117D270800FA0076082B
:100D2000F8007808F9007608F8007808F3007A08E7
:100D30000A128A1139260A128A117708840083134D
:100D400000080319080077088400831300080A12BA
:100D50008A11B5260A128A110130F8007808F707BF
:100D60000130F8007808F9079D2EF2008312031372
:100D700008157208F00004300310F00CFF3E031D4C
:100D8000BC2E7008F100F10E080871060F397106CB
:100D9000880088110D30F000F00BCC2E8312031365
:100DA0008815081572080F39F000F00E0808700653
:100DB0000F397006880088110D30F000F00BDE2E20
:100DC0008312031388150800243084002D30831209
:100DD0000313A0000408A1000930A2002008840029
:100DE00083130008A300A00A2108840023088000C0
:100DF000A10AA20BEE2E0A128A116C260A128A117F
:100E00000A128A114A260A128A110A128A11222704
:100E10000A128A1183120313A0002008AA002A08CC
:100E2000031D162F2030A0002008AA00F601243050
:100E3000A0002008F70000300A128A118E260A123C
:100E40008A11052FF701F8010430780203187B2F6F
:100E50000130F000780A2E2F0310F00DFF3E031D25
:100E60002C2F7008FF3A831203138600F901043017
:100E700079020318732F0609F000F101F109790ACC
:100E8000F2001030F3000030F400492F0310F30D8E
:100E9000F40DF20B462F70087305F5007108740508
:100EA000F6007508760403196B2F7808F0000230FD
:100EB0000310F00DFF3E031D582F01307007F100A5
:100EC0007908710784000A128A1103200A128A1114
:100ED000F2007208F7000130F0007008F9070430E2
:100EE0007902031C3B2F0130F0007008F807043032
:100EF0007802031C282F77080800F20083120313DE
:100F000008117208F00004300310F00CFF3E031DBE
:100F1000842F7008F100F10E080871060F39710670
:100F20008800881172030319992F02307206031D7D
:100F3000A32F0330F1009730F000F00B9D2FF10B41
:100F40009D2FA22FA72F0D30F000F00BA52F83129D
:100F500003138815F0307205F00020307006031D71
:100F6000CA2F08117208F00004300310F00CFF3E85
:100F7000031DB52F7008F100F10E080871060F3936
:100F80007106880088110D30F000F00BC52F831218
:100F900003138815081172080F39F000F00E0808C5
:100FA00070060F3970068800881172030319DC2F50
:100FB00002307206031DE62F0330F1009730F00077
:100FC000F00BE02FF10BE02FE52FEA2F0D30F000B2
:100FD000F00BE82F831203138815080083133630B3
:100FE000FD000630FE003030FF002D3084000A1274
:100FF0008A115F26FB01FC0183010A128A11E42E8B
:02400E00D4EFED
:00000001FF
